{
	"data": {
		"bytecode": {
			"linkReferences": {},
			"object": "60806040526000805534801561001457600080fd5b5060cd806100236000396000f3fe6080604052348015600f57600080fd5b5060043610603c5760003560e01c806306661abd1460415780632baeceb714605d578063d09de08a146065575b600080fd5b6047606d565b6040518082815260200191505060405180910390f35b60636073565b005b606b6085565b005b60005481565b60016000808282540392505081905550565b6001600080828254019250508190555056fea2646970667358221220a3303ee5969fa0884ab54daf373127e831764ecf6d7ab8532350f9cc8345b1f264736f6c63430007060033",
			"opcodes": "PUSH1 0x80 PUSH1 0x40 MSTORE PUSH1 0x0 DUP1 SSTORE CALLVALUE DUP1 ISZERO PUSH2 0x14 JUMPI PUSH1 0x0 DUP1 REVERT JUMPDEST POP PUSH1 0xCD DUP1 PUSH2 0x23 PUSH1 0x0 CODECOPY PUSH1 0x0 RETURN INVALID PUSH1 0x80 PUSH1 0x40 MSTORE CALLVALUE DUP1 ISZERO PUSH1 0xF JUMPI PUSH1 0x0 DUP1 REVERT JUMPDEST POP PUSH1 0x4 CALLDATASIZE LT PUSH1 0x3C JUMPI PUSH1 0x0 CALLDATALOAD PUSH1 0xE0 SHR DUP1 PUSH4 0x6661ABD EQ PUSH1 0x41 JUMPI DUP1 PUSH4 0x2BAECEB7 EQ PUSH1 0x5D JUMPI DUP1 PUSH4 0xD09DE08A EQ PUSH1 0x65 JUMPI JUMPDEST PUSH1 0x0 DUP1 REVERT JUMPDEST PUSH1 0x47 PUSH1 0x6D JUMP JUMPDEST PUSH1 0x40 MLOAD DUP1 DUP3 DUP2 MSTORE PUSH1 0x20 ADD SWAP2 POP POP PUSH1 0x40 MLOAD DUP1 SWAP2 SUB SWAP1 RETURN JUMPDEST PUSH1 0x63 PUSH1 0x73 JUMP JUMPDEST STOP JUMPDEST PUSH1 0x6B PUSH1 0x85 JUMP JUMPDEST STOP JUMPDEST PUSH1 0x0 SLOAD DUP2 JUMP JUMPDEST PUSH1 0x1 PUSH1 0x0 DUP1 DUP3 DUP3 SLOAD SUB SWAP3 POP POP DUP2 SWAP1 SSTORE POP JUMP JUMPDEST PUSH1 0x1 PUSH1 0x0 DUP1 DUP3 DUP3 SLOAD ADD SWAP3 POP POP DUP2 SWAP1 SSTORE POP JUMP INVALID LOG2 PUSH5 0x6970667358 0x22 SLT KECCAK256 LOG3 ADDRESS RETURNDATACOPY 0xE5 SWAP7 SWAP16 LOG0 DUP9 0x4A 0xB5 0x4D 0xAF CALLDATACOPY BALANCE 0x27 0xE8 BALANCE PUSH23 0x4ECF6D7AB8532350F9CC8345B1F264736F6C6343000706 STOP CALLER "
		},
		"gasEstimates": {
			"creation": {
				"codeDepositCost": "41000",
				"executionCost": "5099",
				"totalCost": "46099"
			},
			"external": {
				"count()": "983",
				"decrement()": "20977",
				"increment()": "20999"
			}
		},
		"methodIdentifiers": {
			"count()": "06661abd",
			"decrement()": "2baeceb7",
			"increment()": "d09de08a"
		}
	},
	"abi": [
		{
			"inputs": [],
			"name": "count",
			"outputs": [
				{
					"internalType": "uint256",
					"name": "",
					"type": "uint256"
				}
			],
			"stateMutability": "view",
			"type": "function"
		},
		{
			"inputs": [],
			"name": "decrement",
			"outputs": [],
			"stateMutability": "nonpayable",
			"type": "function"
		},
		{
			"inputs": [],
			"name": "increment",
			"outputs": [],
			"stateMutability": "nonpayable",
			"type": "function"
		}
	]
}